:400000000080002011000000010400000104000008B5044B1A6803F53F5302331A6000F0F7F900BFFA46004010B5054C237833B9044B13B10448AFF300800123237010BD7D
:400040004881FF1F0000000050110000084B10B51BB108490848AFF300800848036803B910BD074B002BFBD0BDE81040184700BF000000004C81FF1F50110000C880FF1F40
:400080000000000010B5044601F004F8084880FB0430E417C4EB60000D30C0B200F0A6FF4FF4FA7000F010FA00F08CFF10BD00BF398EE33808B50020FFF7E4FF08BD00BF2D
:4000C00008B56420FFF7DEFF08BD00BF10B50446FFF7F6FF204600F0F7F9FFF7EBFF204600F0F2F910BD00BF08B562B600F054FD00F00EFF012000F0FFFE00F09FFF00F0DC
:40010000C9FF4FF4FA70FFF7E1FF642000F0DCF9F7E700BFFEE700BFF0B40022174611E050F82760F3B226F0FF0608E001EB420511F812406D78A5550132013BDBB2002BCB
:40014000F4D10137192FEBD9F0BC70470A4B1B78DBB203F00701094A11701B09013213700122074B1A701023064A1370583213704422054B1A707047CF0100496E580040CD
:40018000FD510040005B00407658004008B50A46002100F0D4FF08BD08B500F0C5FF08BD38B50024324B1C80502202331A70332202331A8018232F4A137040F2437102324C
:4001C00011800232137004222B492C48FFF7E4FF02222B4B1A7008224FF040231A70032103F500731970274B1B78DBB226490B70264B1A8041F25122023B1A8019250CE010
:40020000234B1B7803F0010343EA440404F003044FF4F07000F04CFF013D0DB1032CEFD115B90320FFF776FF1A4B4FF480721A8007221A70002218490A704820023108703A
:400240001A700222033B1A7004220A331A70134A137843F007031370013A137843F001031370013A137843F08003137038BD00BF80400040864000401C0500480041004050
:400280000043004008010049A146004022420040254200400440004006400040A2430040012807D8044B53F820201844017A13780B431370704700BF54110000012808D8CF
:4002C000044B53F820201844017A137823EA0103137070475411000038B572B6364A137843F00403137000240BE0344863001A19510001440A46098AD068FFF747FF0134F2
:40030000E4B2072CF1D900240BE02C49A3001819420088188022016CC06BFFF73DFF0134E4B2002CF1D026494FF09040FFF7F4FE0A22244B1A7024490B7843F002030B709E
:4003400010310B7843F002030B70204C237843F040032370A1F5863151390B7843F010030B701B491B48FFF717FF08221A491B48FFF712FF08221A491A48FFF70DFF0822F6
:4003800019491A48FFF708FF194A137843F008031370184D61232B70FFF702FF81232B700122154B1A70FFF7D1FE0E2221461348FFF7F2FE38BD00BFE846004054110000E2
:4003C000680000488358004003500140A0430040F8040048C051004004050048F25100400C050048125100401405004822510040224300400048004004000840B043004056
:4004000008B500F065FE03680C2B00D1FEE7FEE708B5104E104D16E029686B68AC68002204E051F8040B43F8040B0432A242F8D1E868002203E0002143F8041B0432824234
:40044000F9D11035013E002EE6D100F047FEFFF74BFEFEE701000000C011000008B5104A104B1A60104A136843F40073136000230AE0032B03D80D4A52F8231000E00C4921
:400480000C4A42F8231001332F2BF2D90A4B1A780A4B1A70074A0A4B1A60FFF71DFF08BD0004FA050CED00E014ED00E000000000010400000080FF1FBC760040C080FF1F33
:4004C00008ED00E001BE704710B5044605E0084B186800F0EDFDA4F50044B4F5004FF6D8034B586800FB04F000F0E2FD10BD00BFCC80FF1F08B5034B1B7A00FB03F000F02D
:40050000D7FD08BDCC80FF1F70B504460E46074B1D681F2802D90020FFF7D4FF04F01F04103455F8240045F8246070BD08ED00E038B504460D46072902D90020FFF7C2FF18
:400540001F2C02D90020FFF7BDFF04F01F0000F1604000F564406D01EDB2057038BD00BF38B59DF81040651EEDB2032D51D8013809282ED8DFE800F0052D2D052D2D0F19B6
:400580002D230F2B03D92548007840B222E02448007840B21EE00F2B03D92248007840B218E02148007840B214E00F2B03D91F48007840B20EE01E48007840B20AE00F2BB6
:4005C00003D91C48007840B204E01B48007840B200E0002001EB401101FB02F2D20B91B20D2B0BD8C3F10E0192B20A4191B2621E124800EB82020133937005E0631E0F4A64
:4006000002EB83030F229A70013C0C4B23F8241038BD0020FFF756FF38BD00BF180100491C010049190100491D0100491A0100491E0100491B0100491F0100496481FF1FE6
:40064000F8B5074600F03CFD06460D4D2B7843F003032B700B4C237843F0030323700A4B1F700320FFF746FF2B7803F0FC032B70237803F0FC032370304600F025FDF8BDAD
:40068000F8460040F946004092580040F8B504460022C14B1A7401285DD13822BF4B1A70042202331A70062201331A70002501331D7001331D703F2201331A7002331D70C8
:4006C00001331D7001331D7001260A331E70502203F527631A700A2201331A702C2201331A7001331D70442203331A70482201331A7001331E7002331E70112201331A708D
:40070000192201331A70972201331A705220FFF797FF5822A24B1A7001331D70052705331F70022201331A7001331D7001331D70284600F033FC43F233329A4B1A60314645
:40074000384600F05DFA3146252000F0DDFA96491D20FFF7D9FE022C5DD138228F4B1A70042202331A70062201331A70002501331D7001331D703F2201331A7002331D70DB
:4007800001331D7001331D7001260A331E70502203F527631A70272201331A702C2201331A7001331D70552203331A705A2201331A70052701331F7002331E7011220133E9
:4007C0001A70192201331A70972201331A704420FFF736FF5822724B1A7001331D7005331F70022201331A7001331D7001331D70284600F0D3FB4FF47A426A4B1A603146F2
:40080000384600F0FDF93146252000F07DFA67491D20FFF779FE032C5DD138225F4B1A70042202331A70062201331A70002501331D7001331D703F2201331A7002331D7099
:4008400001331D7001331D7001260A331E70502203F527631A70272201331A702C2201331A7001331D70552203331A705A2201331A70052701331F7002331E701122013328
:400880001A70192201331A70972201331A704420FFF7D6FE5822424B1A7001331D7005331F70022201331A7001331D7001331D70284600F073FB4FF47A423A4B1A60314652
:4008C000384600F09DF93146252000F01DFA38491D20FFF719FE042C5DD138222F4B1A70042202331A70062201331A70002401331C7001331C703F2201331A7002331C705B
:4009000001331C7001331C7001250A331D70502203F527631A70272201331A702C2201331A7001331C70552203331A705A2201331A70052601331E7002331D70112201336F
:400940001A70192201331A70972201331A704420FFF776FE5822124B1A7001331C7005331E70022201331A7001331C7001331C70204600F013FB4FF47A420A4B1A602946C5
:40098000304600F03DF92946252000F0BDF909491D20FFF7B9FDF8BD6481FF1F004E0040945800408081FF1FC10B0000C50B0000C90B0000CD0B00002DE9F04182B0394D2E
:4009C0004FF0010885F80080374E00247474102000F004F9102000F085F907211D20FFF7A7FD0427314B1F7001331C7007331C702F4A137843F0180313702E4B1C7003F2DC
:400A0000F5231C7001331C700A22A3F209331A7001331C7002331C705B2205331A705E2201331A7004331C701422A3F68C231A70CDF8008010234FF4004248F6F051022064
:400A4000FFF78EFD0223009310234FF4004249F2DA012046FFF784FD0323009310234FF4004249F2DA012046FFF77AFD009710234FF4004249F2DA012046FFF771FD2B7866
:400A8000013B06EB83039A780B4B1A702B78013B36F82320094B1A802878FFF7F7FD02B0BDE8F081DC80FF1F6481FF1F96580040075B0040935800400E4E00400C4E004053
:400AC00070B500F0FDFA06462A4B1B782A4B1A7842F001021A701A7842F010021A7010331A7842F001021A701A7842F010021A70224D2B7843F002032B70214C237843F05C
:400B0000020323701F4A137843F0030313700320FFF7F0FC2B7803F0FD032B70237803F0FD032370184A137843F0060313707A22164B1A70164A137843F0010313701032FC
:400B4000137843F0010313700F3A137843F0010313701032137843F0010313704FF000530C4A1360A2F5C0721360304600F0ACFA70BD00BFDC80FF1FAA430040F846004067
:400B8000F9460040915800407758004082580040A143004080E200E008B5084B9B7C4BB9064BDB7C13F0FF0F01D1FFF705FF0122024B9A74FFF784FF08BD00BF6481FF1FD0
:400BC000704700BF704700BF704700BF704700BF014B188880B2704780400040034B1A7800F0F80010431870704700BF82400040024B187800F00700704700BF82400040E1
:400C000070B505460E46FFF7F3FF0446FFF7E0FFA84256D02B4B1B7803F0010294B900B185B938B9284B1D80284A137803F0BF03137070BD254A137843F040031370224BDB
:400C40001D8070BD22B3002321490B7001240F310C7004310B700C390B7803F07F030B701A4B1B7813F0080F00D08DB9194B18800721013B1970164B1B7813F0010FFAD1A1
:400C800010490B7803F0FE030B700021104B19700C4B1B7813F0010F0DD00E4B1D800EB1032200E001220A4B1A70094B1B7813F0010FFAD170BD044B1D8002490B7813434C
:400CC0000B7070BDA243004080400040824000400140004002400040014B188880B2704700410040034B1A7800F0F80010431870704700BF02410040024B187800F007005C
:400D0000704700BF0241004070B505460E46FFF7F3FF0446FFF7E0FFA84256D02B4B1B7803F0010294B900B185B938B9284B1D80284A137803F0BF03137070BD254A137847
:400D400043F040031370224B1D8070BD22B3002321490B70012413310C7004390B7008390B7803F07F030B701A4B1B7813F0080F00D08DB9194B18800721013B1970164BA3
:400D80001B7813F0010FFAD110490B7803F0FE030B700021104B19700C4B1B7813F0010F0DD00E4B1D800EB1032200E001220A4B1A70094B1B7813F0010FFAD170BD044B9B
:400DC0001D8002490B7813430B7070BDA14300400041004002410040014000400240004010B50B4C237803F09F032370237803F0F00323702378184340F010002070012085
:400E0000FFF778FB237803F0EF03237010BD00BF2051004070B5354B1A7802F08002D2B21A7033490A7802F0F00242F00F020A7001310A7802F0F0020A7001310A7802F0E9
:400E4000F0020A701A7802F0DF021A701A7842F040021A704FF4CA760020FFF74BFB234D2B7843F010032B700120FFF743FB214B1C78E4B22B7803F0EF032B700020FFF790
:400E800039FB04F00804E4B22B7843F010032B700120FFF72FFB2B7803F0EF032B7014B90A20FFF727FB013E0CB1002ED4D10F4A137803F0BF031370137803F08003DBB2F8
:400EC00013700232137803F0F00313700132137803F0F00343F00F0313700132137803F0F00343F00F03137070BD00BF20510040225100402151004010B50446FFF78AFFDF
:400F00002009FFF76DFF04F00F00FFF769FF10BD08B52820FFF7D8FA0320FFF761FF0520FFF7D2FA0320FFF75BFF0F20FFF7CCFA0320FFF755FF0120FFF7C6FA0220FFF711
:400F40004FFF0520FFF7C0FA0620FFF7D5FF0E20FFF7D2FF2C20FFF7CFFF0820FFF7CCFF0120FFF7C9FF0C20FFF7C6FF0320FFF7C3FF0520FFF7A8FA08BD00BF10B50024A5
:400F800004E02046FFF79AF90134E4B2012CF8D9FF22014B1A7010BDDD80FF1F10B50446FFF7ECFF2046FFF77BF9014B1C7010BDDD80FF1F024A137843F0800313707047AF
:400FC0007D640040024A137803F07F03137070477D640040014B1870704700BF0C640040014B1870704700BF4C640040014B1870704700BF2C640040014B1870704700BF91
:401000003C640040014B1870704700BF8C640040014B1878704700BF6C640040014B1878704700BF5C64004008B501E0FFF7F6FFFFF7EEFF10F0100FF8D108BD10B5134A67
:40104000137803F0C00343F011031370104C237843F001032370FF20FFF7BCFFFF20FFF7BFFF0D20FFF7C2FFC720FFF7C5FF0020FFF7C8FF00F024F8237843F0100323701F
:4010800000F022F8FFF7D0FF10BD00BF7D6400409C64004008B5054B1B7823B9FFF7CEFF0122024B1A70FFF785FF08BD7C81FF1F0230800803D000BF01380046FCD1704792
:4010C000EFF3108072B6704780F31088704700BF014B1868704700BF4081FF1F0E4B70B51E460E4C0025E41AA410A54204D056F8253098470135F8E700F050F8084B094CB8
:401100001E46E41AA4100025A54204D056F8253098470135F8E770BDA8110000A8110000A8110000B011000010B5431E0A44914204D011F8014B03F8014FF8E710BD034659
:401140000244934202D003F8011BFAE77047000000000000035B00402443004040000000005100401000305100404000000001400006800601408009001401400008004078
:401180000140000A004C01400002005001402000000601407804004880004300F8B500BFF8BC08BC9E4670474D0000005D040000F8B500BFF8BC08BC9E4670472900000001
:4011C000D0110000C880FF1F8000000040000000000000000000E02EC05D00001800000000366E0101FF000000000000000000000000000000000000000000000000000000
:4012000000000000000000009A1100000000000000000000000000000000000000000000000000000000000000000000000000000000000000000000000000000000000003
:401240000000000000000000E080FF1F00000000000000000000000000000000000000000000000000000000000000000000000000000000000000000000000000000000F0
:40128000000000000000000000000000000000000000000000000000000000000000000000000000000000000000000000000000000000000000000000000000000000002E
:4012C00000000000000000000000000000000000000000000000000000000000000000000000000000000000000000000000000000000000000000000000000000000000EE
:4013000000000000000000000000000000000000000000000000000000000000000000000000000000000000000000000000000000000000000000000000000000000000AD
:40134000000000000000000000000000000000000000000000000000000000000000000000000000000000000000000000000000000000000000000000000000000000006D
:020000040003F7
:0200000480007A
:400000000352004002640040026500400404014001050140170601403A07014001090140010B01403C0C0140210D01404B1401404A1501404D1601404817014001190140FF
:40004000011B0140024401400345014005460140034701400548014002490140034C0140034D014005500140118061807C0286388C0F8572870F39803F4059045F0120013F
:4000800085038601870C8A018B0894019503970498019B05A10AA304A503A601A704B001B50FBB20BE01D804D904DC10DF01002001080410050409200B200C400D040E8119
:4000C0000F481020158017081A401C201F0120082120230C240526082740284029082C802F263020310435103602370438103B043C053D013FA04502460447404F68574097
:400100005C0264046504672284108601B401C066C2F6C4A4CAF3CCE6CEF6D0B0D230D680D830EC10B401000107040F0212021E022401270129032A042D0430043104320168
:400140003303340238083E104060410445D046454721483E49FF4AFF4BFF4DA04F0450185407580459045A045B045C225D225F01604062C06440654066C068C06AC06CC0B2
:400180006EC08701A701AE01B201B401B601B701D280D804D904DB04DC22DD20DF0106800D020E011002161819081A011B101E481F08200127A029082E402F283A083E88D8
:4001C00045024F215502569857205E085FA17002C010C290C461CA72CE52D080D220D6F00403080214031D0126013301360338803E403F044001470449FF4A074BFF4C40BB
:400200004D204EF04F055008580459045A045D015F01604061A862406320800681F38218830C840185048801890C8C108D0892049380941E959C9743981A99819A049C1ABE
:400240009E049F73A001A102A408A58FA730A818A9FFAD03B001B10FB3ECB41CB602B71CBA28BB0ABE40D602D713D804D904DB04DC11DD10DF0100280440060107540908B4
:400280000B200C800D020E180F201020172918011C041D021E15220424802501264627402D012E142F023280348036153C403D023E2840814102482049104A0451045E012B
:4002C0006F35762977288040820483048C8491019320950896089C809D109E049F14A014A291A306A4A0A50AA642A730A820A908AC04AD01AE12AF04C0F6C2F4C474CAF0B7
:40030000CCF8CEF0D008D680E40400080108023004380501090C0A060C100E080F01110C1205150116021A031B0C1C201E081F0C20062201230C2438250229042B102D0C6A
:400340002E013038311033033407350C39083A20580459045C115F018110830C851089098B10940195149B03A11CA302A50CA711B201B51FBE04C061C103C50CC60EC70BA4
:40038000C815C9FFCAFFCBFFCEF0CF44D00CD401D804D904DA04DB04DC10DD11DF01E6C0EA40EB020410068207100A200D050E080F021440158017041B041E081F122210D4
:4003C00024102621284029042B402CA02E802F06300832103480351036063810390A3C083D013FA24148480449085008528058215A4878017A8080228140822091019240EF
:40040000941095889728984099049C029D189E049F04A014A4A0A502A642A732AC04AE08C0F0C2F4C4B0CAF3CCF6CEF7D00AD204D60FE480E480E4047C01DE0161029401B2
:40044000D80246209401B502D001EC089E20B401EC08050225208920C020C820AD02EC108A209E20E40170018001DC0100060A020E0410021A0200000010000C01000E20A3
:4004800000010C00000000200001100000180800000010010C0003000000000101180600000800140000030210060F2000010018002008000000010524060500010C0E00A7
:4004C00005FFFFFF62A0F0410C00000018000000040404041111000100000000000040020010301000101012000000000000000000000000000000008000008080008000AC
:40050000000000000200000000000100000B0B000000000000FFFF0080000000250018010000000000000000000000000000000000000000000000000000000000000000E6
:40054000000000000000000000000000000000000000000000000000000000000000000000000000000000000000000000000000000000000000000000000000000000007B
:40058000000000000000000000000000000000000000000000000000000000000000000000000000000000000000000000000000000000000000000000000000000000003B
:4005C00000000000000000000000000000000000000000000000000000000000000000000000000000000000000000000000000000000000000000000000000000000000FB
:4006000000000000000000000000000000000000000000000000000000000000000000000000000000000000000000000000000000000000000000000000000000000000BA
:0200000490006A
:0400000000004005B7
:0200000490105A
:04000000BC90ACAF55
:0200000490303A
:020000006AEAAA
:0200000490402A
:4000000000000000000000000000000000000000000000000000000000000000000000000000000000000000000000000000000000000000000000000000000000000000C0
:400040000000000000000000000000000000000000000000000000000000000000000000000000000000000000000000000000000000000000000000000000000000000080
:400080000000000000000000000000000000000000000000000000000000000000000000000000000000000000000000000000000000000000000000000000000000000040
:4000C0000000000000000000000000000000000000000000000000000000000000000000000000000000000000000000000000000000000000000000000000000000000000
:0200000490501A
:0C00000000012E16106900012E1D7B531C
:00000001FF